{"abi":[{"type":"constructor","inputs":[],"stateMutability":"nonpayable"},{"type":"function","name":"approve","inputs":[{"name":"to","type":"address","internalType":"address"},{"name":"tokenId","type":"uint256","internalType":"uint256"}],"outputs":[],"stateMutability":"nonpayable"},{"type":"function","name":"balanceOf","inputs":[{"name":"owner","type":"address","internalType":"address"}],"outputs":[{"name":"","type":"uint256","internalType":"uint256"}],"stateMutability":"view"},{"type":"function","name":"getApproved","inputs":[{"name":"tokenId","type":"uint256","internalType":"uint256"}],"outputs":[{"name":"","type":"address","internalType":"address"}],"stateMutability":"view"},{"type":"function","name":"isApprovedForAll","inputs":[{"name":"owner","type":"address","internalType":"address"},{"name":"operator","type":"address","internalType":"address"}],"outputs":[{"name":"","type":"bool","internalType":"bool"}],"stateMutability":"view"},{"type":"function","name":"mintArt","inputs":[{"name":"to","type":"address","internalType":"address"},{"name":"uri","type":"string","internalType":"string"}],"outputs":[{"name":"tokenId","type":"uint256","internalType":"uint256"}],"stateMutability":"nonpayable"},{"type":"function","name":"name","inputs":[],"outputs":[{"name":"","type":"string","internalType":"string"}],"stateMutability":"view"},{"type":"function","name":"owner","inputs":[],"outputs":[{"name":"","type":"address","internalType":"address"}],"stateMutability":"view"},{"type":"function","name":"ownerOf","inputs":[{"name":"tokenId","type":"uint256","internalType":"uint256"}],"outputs":[{"name":"","type":"address","internalType":"address"}],"stateMutability":"view"},{"type":"function","name":"renounceOwnership","inputs":[],"outputs":[],"stateMutability":"nonpayable"},{"type":"function","name":"safeTransferFrom","inputs":[{"name":"from","type":"address","internalType":"address"},{"name":"to","type":"address","internalType":"address"},{"name":"tokenId","type":"uint256","internalType":"uint256"}],"outputs":[],"stateMutability":"nonpayable"},{"type":"function","name":"safeTransferFrom","inputs":[{"name":"from","type":"address","internalType":"address"},{"name":"to","type":"address","internalType":"address"},{"name":"tokenId","type":"uint256","internalType":"uint256"},{"name":"data","type":"bytes","internalType":"bytes"}],"outputs":[],"stateMutability":"nonpayable"},{"type":"function","name":"setApprovalForAll","inputs":[{"name":"operator","type":"address","internalType":"address"},{"name":"approved","type":"bool","internalType":"bool"}],"outputs":[],"stateMutability":"nonpayable"},{"type":"function","name":"supportsInterface","inputs":[{"name":"interfaceId","type":"bytes4","internalType":"bytes4"}],"outputs":[{"name":"","type":"bool","internalType":"bool"}],"stateMutability":"view"},{"type":"function","name":"symbol","inputs":[],"outputs":[{"name":"","type":"string","internalType":"string"}],"stateMutability":"view"},{"type":"function","name":"tokenURI","inputs":[{"name":"tokenId","type":"uint256","internalType":"uint256"}],"outputs":[{"name":"","type":"string","internalType":"string"}],"stateMutability":"view"},{"type":"function","name":"transferFrom","inputs":[{"name":"from","type":"address","internalType":"address"},{"name":"to","type":"address","internalType":"address"},{"name":"tokenId","type":"uint256","internalType":"uint256"}],"outputs":[],"stateMutability":"nonpayable"},{"type":"function","name":"transferOwnership","inputs":[{"name":"newOwner","type":"address","internalType":"address"}],"outputs":[],"stateMutability":"nonpayable"},{"type":"event","name":"Approval","inputs":[{"name":"owner","type":"address","indexed":true,"internalType":"address"},{"name":"approved","type":"address","indexed":true,"internalType":"address"},{"name":"tokenId","type":"uint256","indexed":true,"internalType":"uint256"}],"anonymous":false},{"type":"event","name":"ApprovalForAll","inputs":[{"name":"owner","type":"address","indexed":true,"internalType":"address"},{"name":"operator","type":"address","indexed":true,"internalType":"address"},{"name":"approved","type":"bool","indexed":false,"internalType":"bool"}],"anonymous":false},{"type":"event","name":"BatchMetadataUpdate","inputs":[{"name":"_fromTokenId","type":"uint256","indexed":false,"internalType":"uint256"},{"name":"_toTokenId","type":"uint256","indexed":false,"internalType":"uint256"}],"anonymous":false},{"type":"event","name":"MetadataUpdate","inputs":[{"name":"_tokenId","type":"uint256","indexed":false,"internalType":"uint256"}],"anonymous":false},{"type":"event","name":"OwnershipTransferred","inputs":[{"name":"previousOwner","type":"address","indexed":true,"internalType":"address"},{"name":"newOwner","type":"address","indexed":true,"internalType":"address"}],"anonymous":false},{"type":"event","name":"Transfer","inputs":[{"name":"from","type":"address","indexed":true,"internalType":"address"},{"name":"to","type":"address","indexed":true,"internalType":"address"},{"name":"tokenId","type":"uint256","indexed":true,"internalType":"uint256"}],"anonymous":false},{"type":"error","name":"ERC721IncorrectOwner","inputs":[{"name":"sender","type":"address","internalType":"address"},{"name":"tokenId","type":"uint256","internalType":"uint256"},{"name":"owner","type":"address","internalType":"address"}]},{"type":"error","name":"ERC721InsufficientApproval","inputs":[{"name":"operator","type":"address","internalType":"address"},{"name":"tokenId","type":"uint256","internalType":"uint256"}]},{"type":"error","name":"ERC721InvalidApprover","inputs":[{"name":"approver","type":"address","internalType":"address"}]},{"type":"error","name":"ERC721InvalidOperator","inputs":[{"name":"operator","type":"address","internalType":"address"}]},{"type":"error","name":"ERC721InvalidOwner","inputs":[{"name":"owner","type":"address","internalType":"address"}]},{"type":"error","name":"ERC721InvalidReceiver","inputs":[{"name":"receiver","type":"address","internalType":"address"}]},{"type":"error","name":"ERC721InvalidSender","inputs":[{"name":"sender","type":"address","internalType":"address"}]},{"type":"error","name":"ERC721NonexistentToken","inputs":[{"name":"tokenId","type":"uint256","internalType":"uint256"}]},{"type":"error","name":"OwnableInvalidOwner","inputs":[{"name":"owner","type":"address","internalType":"address"}]},{"type":"error","name":"OwnableUnauthorizedAccount","inputs":[{"name":"account","type":"address","internalType":"address"}]}],"bytecode":{"object":"0x60806040526001600855348015610014575f5ffd5b50336040518060400160405280600a81526020017f4172746f6e636861696e000000000000000000000000000000000000000000008152506040518060400160405280600481526020017f4152544300000000000000000000000000000000000000000000000000000000815250815f90816100909190610428565b5080600190816100a09190610428565b5050505f73ffffffffffffffffffffffffffffffffffffffff168173ffffffffffffffffffffffffffffffffffffffff1603610113575f6040517f1e4fbdf700000000000000000000000000000000000000000000000000000000815260040161010a9190610536565b60405180910390fd5b6101228161012860201b60201c565b5061054f565b5f60075f9054906101000a900473ffffffffffffffffffffffffffffffffffffffff1690508160075f6101000a81548173ffffffffffffffffffffffffffffffffffffffff021916908373ffffffffffffffffffffffffffffffffffffffff1602179055508173ffffffffffffffffffffffffffffffffffffffff168173ffffffffffffffffffffffffffffffffffffffff167f8be0079c531659141344cd1fd0a4f28419497f9722a3daafe3b4186f6b6457e060405160405180910390a35050565b5f81519050919050565b7f4e487b71000000000000000000000000000000000000000000000000000000005f52604160045260245ffd5b7f4e487b71000000000000000000000000000000000000000000000000000000005f52602260045260245ffd5b5f600282049050600182168061026657607f821691505b60208210810361027957610278610222565b5b50919050565b5f819050815f5260205f209050919050565b5f6020601f8301049050919050565b5f82821b905092915050565b5f600883026102db7fffffffffffffffffffffffffffffffffffffffffffffffffffffffffffffffff826102a0565b6102e586836102a0565b95508019841693508086168417925050509392505050565b5f819050919050565b5f819050919050565b5f61032961032461031f846102fd565b610306565b6102fd565b9050919050565b5f819050919050565b6103428361030f565b61035661034e82610330565b8484546102ac565b825550505050565b5f5f905090565b61036d61035e565b610378818484610339565b505050565b5b8181101561039b576103905f82610365565b60018101905061037e565b5050565b601f8211156103e0576103b18161027f565b6103ba84610291565b810160208510156103c9578190505b6103dd6103d585610291565b83018261037d565b50505b505050565b5f82821c905092915050565b5f6104005f19846008026103e5565b1980831691505092915050565b5f61041883836103f1565b9150826002028217905092915050565b610431826101eb565b67ffffffffffffffff81111561044a576104496101f5565b5b610454825461024f565b61045f82828561039f565b5f60209050601f831160018114610490575f841561047e578287015190505b610488858261040d565b8655506104ef565b601f19841661049e8661027f565b5f5b828110156104c5578489015182556001820191506020850194506020810190506104a0565b868310156104e257848901516104de601f8916826103f1565b8355505b6001600288020188555050505b505050505050565b5f73ffffffffffffffffffffffffffffffffffffffff82169050919050565b5f610520826104f7565b9050919050565b61053081610516565b82525050565b5f6020820190506105495f830184610527565b92915050565b61258d8061055c5f395ff3fe608060405234801561000f575f5ffd5b5060043610610109575f3560e01c806370a08231116100a0578063a22cb4651161006f578063a22cb465146102b5578063b88d4fde146102d1578063c87b56dd146102ed578063e985e9c51461031d578063f2fde38b1461034d57610109565b806370a082311461023f578063715018a61461026f5780638da5cb5b1461027957806395d89b411461029757610109565b806323b872dd116100dc57806323b872dd146101a757806342842e0e146101c3578063494fb4ef146101df5780636352211e1461020f57610109565b806301ffc9a71461010d57806306fdde031461013d578063081812fc1461015b578063095ea7b31461018b575b5f5ffd5b61012760048036038101906101229190611a5d565b610369565b6040516101349190611aa2565b60405180910390f35b6101456103c9565b6040516101529190611b2b565b60405180910390f35b61017560048036038101906101709190611b7e565b610458565b6040516101829190611be8565b60405180910390f35b6101a560048036038101906101a09190611c2b565b610473565b005b6101c160048036038101906101bc9190611c69565b610489565b005b6101dd60048036038101906101d89190611c69565b610588565b005b6101f960048036038101906101f49190611de5565b6105a7565b6040516102069190611e4e565b60405180910390f35b61022960048036038101906102249190611b7e565b6105e2565b6040516102369190611be8565b60405180910390f35b61025960048036038101906102549190611e67565b6105f3565b6040516102669190611e4e565b60405180910390f35b6102776106a9565b005b6102816106bc565b60405161028e9190611be8565b60405180910390f35b61029f6106e4565b6040516102ac9190611b2b565b60405180910390f35b6102cf60048036038101906102ca9190611ebc565b610774565b005b6102eb60048036038101906102e69190611f98565b61078a565b005b61030760048036038101906103029190611b7e565b6107af565b6040516103149190611b2b565b60405180910390f35b61033760048036038101906103329190612018565b6108ba565b6040516103449190611aa2565b60405180910390f35b61036760048036038101906103629190611e67565b610948565b005b5f634906490660e01b7bffffffffffffffffffffffffffffffffffffffffffffffffffffffff1916827bffffffffffffffffffffffffffffffffffffffffffffffffffffffff191614806103c257506103c1826109cc565b5b9050919050565b60605f80546103d790612083565b80601f016020809104026020016040519081016040528092919081815260200182805461040390612083565b801561044e5780601f106104255761010080835404028352916020019161044e565b820191905f5260205f20905b81548152906001019060200180831161043157829003601f168201915b5050505050905090565b5f61046282610aad565b5061046c82610b33565b9050919050565b6104858282610480610b6c565b610b73565b5050565b5f73ffffffffffffffffffffffffffffffffffffffff168273ffffffffffffffffffffffffffffffffffffffff16036104f9575f6040517f64a0ae920000000000000000000000000000000000000000000000000000000081526004016104f09190611be8565b60405180910390fd5b5f61050c8383610507610b6c565b610b85565b90508373ffffffffffffffffffffffffffffffffffffffff168173ffffffffffffffffffffffffffffffffffffffff1614610582578382826040517f64283d7b000000000000000000000000000000000000000000000000000000008152600401610579939291906120b3565b60405180910390fd5b50505050565b6105a283838360405180602001604052805f81525061078a565b505050565b5f6105b0610d90565b60085f8154809291906105c290612115565b9190505590506105d28382610e17565b6105dc8183610e34565b92915050565b5f6105ec82610aad565b9050919050565b5f5f73ffffffffffffffffffffffffffffffffffffffff168273ffffffffffffffffffffffffffffffffffffffff1603610664575f6040517f89c62b6400000000000000000000000000000000000000000000000000000000815260040161065b9190611be8565b60405180910390fd5b60035f8373ffffffffffffffffffffffffffffffffffffffff1673ffffffffffffffffffffffffffffffffffffffff1681526020019081526020015f20549050919050565b6106b1610d90565b6106ba5f610e8e565b565b5f60075f9054906101000a900473ffffffffffffffffffffffffffffffffffffffff16905090565b6060600180546106f390612083565b80601f016020809104026020016040519081016040528092919081815260200182805461071f90612083565b801561076a5780601f106107415761010080835404028352916020019161076a565b820191905f5260205f20905b81548152906001019060200180831161074d57829003601f168201915b5050505050905090565b61078661077f610b6c565b8383610f51565b5050565b610795848484610489565b6107a96107a0610b6c565b858585856110ba565b50505050565b60606107ba82610aad565b505f60065f8481526020019081526020015f2080546107d890612083565b80601f016020809104026020016040519081016040528092919081815260200182805461080490612083565b801561084f5780601f106108265761010080835404028352916020019161084f565b820191905f5260205f20905b81548152906001019060200180831161083257829003601f168201915b505050505090505f61085f611266565b90505f8151036108735781925050506108b5565b5f825111156108a757808260405160200161088f929190612196565b604051602081830303815290604052925050506108b5565b6108b08461127c565b925050505b919050565b5f60055f8473ffffffffffffffffffffffffffffffffffffffff1673ffffffffffffffffffffffffffffffffffffffff1681526020019081526020015f205f8373ffffffffffffffffffffffffffffffffffffffff1673ffffffffffffffffffffffffffffffffffffffff1681526020019081526020015f205f9054906101000a900460ff16905092915050565b610950610d90565b5f73ffffffffffffffffffffffffffffffffffffffff168173ffffffffffffffffffffffffffffffffffffffff16036109c0575f6040517f1e4fbdf70000000000000000000000000000000000000000000000000000000081526004016109b79190611be8565b60405180910390fd5b6109c981610e8e565b50565b5f7f80ac58cd000000000000000000000000000000000000000000000000000000007bffffffffffffffffffffffffffffffffffffffffffffffffffffffff1916827bffffffffffffffffffffffffffffffffffffffffffffffffffffffff19161480610a9657507f5b5e139f000000000000000000000000000000000000000000000000000000007bffffffffffffffffffffffffffffffffffffffffffffffffffffffff1916827bffffffffffffffffffffffffffffffffffffffffffffffffffffffff1916145b80610aa65750610aa5826112e2565b5b9050919050565b5f5f610ab88361134b565b90505f73ffffffffffffffffffffffffffffffffffffffff168173ffffffffffffffffffffffffffffffffffffffff1603610b2a57826040517f7e273289000000000000000000000000000000000000000000000000000000008152600401610b219190611e4e565b60405180910390fd5b80915050919050565b5f60045f8381526020019081526020015f205f9054906101000a900473ffffffffffffffffffffffffffffffffffffffff169050919050565b5f33905090565b610b808383836001611384565b505050565b5f5f610b908461134b565b90505f73ffffffffffffffffffffffffffffffffffffffff168373ffffffffffffffffffffffffffffffffffffffff1614610bd157610bd0818486611543565b5b5f73ffffffffffffffffffffffffffffffffffffffff168173ffffffffffffffffffffffffffffffffffffffff1614610c5c57610c105f855f5f611384565b600160035f8373ffffffffffffffffffffffffffffffffffffffff1673ffffffffffffffffffffffffffffffffffffffff1681526020019081526020015f205f82825403925050819055505b5f73ffffffffffffffffffffffffffffffffffffffff168573ffffffffffffffffffffffffffffffffffffffff1614610cdb57600160035f8773ffffffffffffffffffffffffffffffffffffffff1673ffffffffffffffffffffffffffffffffffffffff1681526020019081526020015f205f82825401925050819055505b8460025f8681526020019081526020015f205f6101000a81548173ffffffffffffffffffffffffffffffffffffffff021916908373ffffffffffffffffffffffffffffffffffffffff160217905550838573ffffffffffffffffffffffffffffffffffffffff168273ffffffffffffffffffffffffffffffffffffffff167fddf252ad1be2c89b69c2b068fc378daa952ba7f163c4a11628f55a4df523b3ef60405160405180910390a4809150509392505050565b610d98610b6c565b73ffffffffffffffffffffffffffffffffffffffff16610db66106bc565b73ffffffffffffffffffffffffffffffffffffffff1614610e1557610dd9610b6c565b6040517f118cdaa7000000000000000000000000000000000000000000000000000000008152600401610e0c9190611be8565b60405180910390fd5b565b610e30828260405180602001604052805f815250611606565b5050565b8060065f8481526020019081526020015f209081610e529190612359565b507ff8e1a15aba9398e019f0b49df1a4fde98ee17ae345cb5f6b5e2c27f5033e8ce782604051610e829190611e4e565b60405180910390a15050565b5f60075f9054906101000a900473ffffffffffffffffffffffffffffffffffffffff1690508160075f6101000a81548173ffffffffffffffffffffffffffffffffffffffff021916908373ffffffffffffffffffffffffffffffffffffffff1602179055508173ffffffffffffffffffffffffffffffffffffffff168173ffffffffffffffffffffffffffffffffffffffff167f8be0079c531659141344cd1fd0a4f28419497f9722a3daafe3b4186f6b6457e060405160405180910390a35050565b5f73ffffffffffffffffffffffffffffffffffffffff168273ffffffffffffffffffffffffffffffffffffffff1603610fc157816040517f5b08ba18000000000000000000000000000000000000000000000000000000008152600401610fb89190611be8565b60405180910390fd5b8060055f8573ffffffffffffffffffffffffffffffffffffffff1673ffffffffffffffffffffffffffffffffffffffff1681526020019081526020015f205f8473ffffffffffffffffffffffffffffffffffffffff1673ffffffffffffffffffffffffffffffffffffffff1681526020019081526020015f205f6101000a81548160ff0219169083151502179055508173ffffffffffffffffffffffffffffffffffffffff168373ffffffffffffffffffffffffffffffffffffffff167f17307eab39ab6107e8899845ad3d59bd9653f200f220920489ca2b5937696c31836040516110ad9190611aa2565b60405180910390a3505050565b5f8373ffffffffffffffffffffffffffffffffffffffff163b111561125f578273ffffffffffffffffffffffffffffffffffffffff1663150b7a02868685856040518563ffffffff1660e01b8152600401611118949392919061247a565b6020604051808303815f875af192505050801561115357506040513d601f19601f8201168201806040525081019061115091906124d8565b60015b6111d4573d805f8114611181576040519150601f19603f3d011682016040523d82523d5f602084013e611186565b606091505b505f8151036111cc57836040517f64a0ae920000000000000000000000000000000000000000000000000000000081526004016111c39190611be8565b60405180910390fd5b805160208201fd5b63150b7a0260e01b7bffffffffffffffffffffffffffffffffffffffffffffffffffffffff1916817bffffffffffffffffffffffffffffffffffffffffffffffffffffffff19161461125d57836040517f64a0ae920000000000000000000000000000000000000000000000000000000081526004016112549190611be8565b60405180910390fd5b505b5050505050565b606060405180602001604052805f815250905090565b606061128782610aad565b505f611291611266565b90505f8151116112af5760405180602001604052805f8152506112da565b806112b984611629565b6040516020016112ca929190612196565b6040516020818303038152906040525b915050919050565b5f7f01ffc9a7000000000000000000000000000000000000000000000000000000007bffffffffffffffffffffffffffffffffffffffffffffffffffffffff1916827bffffffffffffffffffffffffffffffffffffffffffffffffffffffff1916149050919050565b5f60025f8381526020019081526020015f205f9054906101000a900473ffffffffffffffffffffffffffffffffffffffff169050919050565b80806113bc57505f73ffffffffffffffffffffffffffffffffffffffff168273ffffffffffffffffffffffffffffffffffffffff1614155b156114ee575f6113cb84610aad565b90505f73ffffffffffffffffffffffffffffffffffffffff168373ffffffffffffffffffffffffffffffffffffffff161415801561143557508273ffffffffffffffffffffffffffffffffffffffff168173ffffffffffffffffffffffffffffffffffffffff1614155b8015611448575061144681846108ba565b155b1561148a57826040517fa9fbf51f0000000000000000000000000000000000000000000000000000000081526004016114819190611be8565b60405180910390fd5b81156114ec57838573ffffffffffffffffffffffffffffffffffffffff168273ffffffffffffffffffffffffffffffffffffffff167f8c5be1e5ebec7d5bd14f71427d1e84f3dd0314c0f7b2291e5b200ac8c7c3b92560405160405180910390a45b505b8360045f8581526020019081526020015f205f6101000a81548173ffffffffffffffffffffffffffffffffffffffff021916908373ffffffffffffffffffffffffffffffffffffffff16021790555050505050565b61154e8383836116f3565b611601575f73ffffffffffffffffffffffffffffffffffffffff168373ffffffffffffffffffffffffffffffffffffffff16036115c257806040517f7e2732890000000000000000000000000000000000000000000000000000000081526004016115b99190611e4e565b60405180910390fd5b81816040517f177e802f0000000000000000000000000000000000000000000000000000000081526004016115f8929190612503565b60405180910390fd5b505050565b61161083836117b3565b61162461161b610b6c565b5f8585856110ba565b505050565b60605f6001611637846118a6565b0190505f8167ffffffffffffffff81111561165557611654611cc1565b5b6040519080825280601f01601f1916602001820160405280156116875781602001600182028036833780820191505090505b5090505f82602083010190505b6001156116e8578080600190039150507f3031323334353637383961626364656600000000000000000000000000000000600a86061a8153600a85816116dd576116dc61252a565b5b0494505f8503611694575b819350505050919050565b5f5f73ffffffffffffffffffffffffffffffffffffffff168373ffffffffffffffffffffffffffffffffffffffff16141580156117aa57508273ffffffffffffffffffffffffffffffffffffffff168473ffffffffffffffffffffffffffffffffffffffff16148061176b575061176a84846108ba565b5b806117a957508273ffffffffffffffffffffffffffffffffffffffff1661179183610b33565b73ffffffffffffffffffffffffffffffffffffffff16145b5b90509392505050565b5f73ffffffffffffffffffffffffffffffffffffffff168273ffffffffffffffffffffffffffffffffffffffff1603611823575f6040517f64a0ae9200000000000000000000000000000000000000000000000000000000815260040161181a9190611be8565b60405180910390fd5b5f61182f83835f610b85565b90505f73ffffffffffffffffffffffffffffffffffffffff168173ffffffffffffffffffffffffffffffffffffffff16146118a1575f6040517f73c6ac6e0000000000000000000000000000000000000000000000000000000081526004016118989190611be8565b60405180910390fd5b505050565b5f5f5f90507a184f03e93ff9f4daa797ed6e38ed64bf6a1f0100000000000000008310611902577a184f03e93ff9f4daa797ed6e38ed64bf6a1f01000000000000000083816118f8576118f761252a565b5b0492506040810190505b6d04ee2d6d415b85acef8100000000831061193f576d04ee2d6d415b85acef810000000083816119355761193461252a565b5b0492506020810190505b662386f26fc10000831061196e57662386f26fc1000083816119645761196361252a565b5b0492506010810190505b6305f5e1008310611997576305f5e100838161198d5761198c61252a565b5b0492506008810190505b61271083106119bc5761271083816119b2576119b161252a565b5b0492506004810190505b606483106119df57606483816119d5576119d461252a565b5b0492506002810190505b600a83106119ee576001810190505b80915050919050565b5f604051905090565b5f5ffd5b5f5ffd5b5f7fffffffff0000000000000000000000000000000000000000000000000000000082169050919050565b611a3c81611a08565b8114611a46575f5ffd5b50565b5f81359050611a5781611a33565b92915050565b5f60208284031215611a7257611a71611a00565b5b5f611a7f84828501611a49565b91505092915050565b5f8115159050919050565b611a9c81611a88565b82525050565b5f602082019050611ab55f830184611a93565b92915050565b5f81519050919050565b5f82825260208201905092915050565b8281835e5f83830152505050565b5f601f19601f8301169050919050565b5f611afd82611abb565b611b078185611ac5565b9350611b17818560208601611ad5565b611b2081611ae3565b840191505092915050565b5f6020820190508181035f830152611b438184611af3565b905092915050565b5f819050919050565b611b5d81611b4b565b8114611b67575f5ffd5b50565b5f81359050611b7881611b54565b92915050565b5f60208284031215611b9357611b92611a00565b5b5f611ba084828501611b6a565b91505092915050565b5f73ffffffffffffffffffffffffffffffffffffffff82169050919050565b5f611bd282611ba9565b9050919050565b611be281611bc8565b82525050565b5f602082019050611bfb5f830184611bd9565b92915050565b611c0a81611bc8565b8114611c14575f5ffd5b50565b5f81359050611c2581611c01565b92915050565b5f5f60408385031215611c4157611c40611a00565b5b5f611c4e85828601611c17565b9250506020611c5f85828601611b6a565b9150509250929050565b5f5f5f60608486031215611c8057611c7f611a00565b5b5f611c8d86828701611c17565b9350506020611c9e86828701611c17565b9250506040611caf86828701611b6a565b9150509250925092565b5f5ffd5b5f5ffd5b7f4e487b71000000000000000000000000000000000000000000000000000000005f52604160045260245ffd5b611cf782611ae3565b810181811067ffffffffffffffff82111715611d1657611d15611cc1565b5b80604052505050565b5f611d286119f7565b9050611d348282611cee565b919050565b5f67ffffffffffffffff821115611d5357611d52611cc1565b5b611d5c82611ae3565b9050602081019050919050565b828183375f83830152505050565b5f611d89611d8484611d39565b611d1f565b905082815260208101848484011115611da557611da4611cbd565b5b611db0848285611d69565b509392505050565b5f82601f830112611dcc57611dcb611cb9565b5b8135611ddc848260208601611d77565b91505092915050565b5f5f60408385031215611dfb57611dfa611a00565b5b5f611e0885828601611c17565b925050602083013567ffffffffffffffff811115611e2957611e28611a04565b5b611e3585828601611db8565b9150509250929050565b611e4881611b4b565b82525050565b5f602082019050611e615f830184611e3f565b92915050565b5f60208284031215611e7c57611e7b611a00565b5b5f611e8984828501611c17565b91505092915050565b611e9b81611a88565b8114611ea5575f5ffd5b50565b5f81359050611eb681611e92565b92915050565b5f5f60408385031215611ed257611ed1611a00565b5b5f611edf85828601611c17565b9250506020611ef085828601611ea8565b9150509250929050565b5f67ffffffffffffffff821115611f1457611f13611cc1565b5b611f1d82611ae3565b9050602081019050919050565b5f611f3c611f3784611efa565b611d1f565b905082815260208101848484011115611f5857611f57611cbd565b5b611f63848285611d69565b509392505050565b5f82601f830112611f7f57611f7e611cb9565b5b8135611f8f848260208601611f2a565b91505092915050565b5f5f5f5f60808587031215611fb057611faf611a00565b5b5f611fbd87828801611c17565b9450506020611fce87828801611c17565b9350506040611fdf87828801611b6a565b925050606085013567ffffffffffffffff81111561200057611fff611a04565b5b61200c87828801611f6b565b91505092959194509250565b5f5f6040838503121561202e5761202d611a00565b5b5f61203b85828601611c17565b925050602061204c85828601611c17565b9150509250929050565b7f4e487b71000000000000000000000000000000000000000000000000000000005f52602260045260245ffd5b5f600282049050600182168061209a57607f821691505b6020821081036120ad576120ac612056565b5b50919050565b5f6060820190506120c65f830186611bd9565b6120d36020830185611e3f565b6120e06040830184611bd9565b949350505050565b7f4e487b71000000000000000000000000000000000000000000000000000000005f52601160045260245ffd5b5f61211f82611b4b565b91507fffffffffffffffffffffffffffffffffffffffffffffffffffffffffffffffff8203612151576121506120e8565b5b600182019050919050565b5f81905092915050565b5f61217082611abb565b61217a818561215c565b935061218a818560208601611ad5565b80840191505092915050565b5f6121a18285612166565b91506121ad8284612166565b91508190509392505050565b5f819050815f5260205f209050919050565b5f6020601f8301049050919050565b5f82821b905092915050565b5f600883026122157fffffffffffffffffffffffffffffffffffffffffffffffffffffffffffffffff826121da565b61221f86836121da565b95508019841693508086168417925050509392505050565b5f819050919050565b5f61225a61225561225084611b4b565b612237565b611b4b565b9050919050565b5f819050919050565b61227383612240565b61228761227f82612261565b8484546121e6565b825550505050565b5f5f905090565b61229e61228f565b6122a981848461226a565b505050565b5b818110156122cc576122c15f82612296565b6001810190506122af565b5050565b601f821115612311576122e2816121b9565b6122eb846121cb565b810160208510156122fa578190505b61230e612306856121cb565b8301826122ae565b50505b505050565b5f82821c905092915050565b5f6123315f1984600802612316565b1980831691505092915050565b5f6123498383612322565b9150826002028217905092915050565b61236282611abb565b67ffffffffffffffff81111561237b5761237a611cc1565b5b6123858254612083565b6123908282856122d0565b5f60209050601f8311600181146123c1575f84156123af578287015190505b6123b9858261233e565b865550612420565b601f1984166123cf866121b9565b5f5b828110156123f6578489015182556001820191506020850194506020810190506123d1565b86831015612413578489015161240f601f891682612322565b8355505b6001600288020188555050505b505050505050565b5f81519050919050565b5f82825260208201905092915050565b5f61244c82612428565b6124568185612432565b9350612466818560208601611ad5565b61246f81611ae3565b840191505092915050565b5f60808201905061248d5f830187611bd9565b61249a6020830186611bd9565b6124a76040830185611e3f565b81810360608301526124b98184612442565b905095945050505050565b5f815190506124d281611a33565b92915050565b5f602082840312156124ed576124ec611a00565b5b5f6124fa848285016124c4565b91505092915050565b5f6040820190506125165f830185611bd9565b6125236020830184611e3f565b9392505050565b7f4e487b71000000000000000000000000000000000000000000000000000000005f52601260045260245ffdfea264697066735822122040b71810f4d3e054634037bed2aee526baeeb5077906189c7b93c4fbc1d08cd964736f6c634300081e0033","linkReferences":{}},"methodIdentifiers":{"approve(address,uint256)":"095ea7b3","balanceOf(address)":"70a08231","getApproved(uint256)":"081812fc","isApprovedForAll(address,address)":"e985e9c5","mintArt(address,string)":"494fb4ef","name()":"06fdde03","owner()":"8da5cb5b","ownerOf(uint256)":"6352211e","renounceOwnership()":"715018a6","safeTransferFrom(address,address,uint256)":"42842e0e","safeTransferFrom(address,address,uint256,bytes)":"b88d4fde","setApprovalForAll(address,bool)":"a22cb465","supportsInterface(bytes4)":"01ffc9a7","symbol()":"95d89b41","tokenURI(uint256)":"c87b56dd","transferFrom(address,address,uint256)":"23b872dd","transferOwnership(address)":"f2fde38b"},"id":40}